{
  "contractName": "Campaign",
  "abi": [
    {
      "inputs": [
        {
          "internalType": "string",
          "name": "_title",
          "type": "string"
        },
        {
          "internalType": "string",
          "name": "_story",
          "type": "string"
        },
        {
          "internalType": "string",
          "name": "_bannerImg",
          "type": "string"
        },
        {
          "internalType": "uint256",
          "name": "_minContribution",
          "type": "uint256"
        },
        {
          "internalType": "uint256",
          "name": "_goal",
          "type": "uint256"
        }
      ],
      "stateMutability": "nonpayable",
      "type": "constructor"
    },
    {
      "inputs": [],
      "name": "approversCount",
      "outputs": [
        {
          "internalType": "uint256",
          "name": "",
          "type": "uint256"
        }
      ],
      "stateMutability": "view",
      "type": "function"
    },
    {
      "inputs": [],
      "name": "manager",
      "outputs": [
        {
          "internalType": "address",
          "name": "",
          "type": "address"
        }
      ],
      "stateMutability": "view",
      "type": "function"
    },
    {
      "inputs": [],
      "name": "minContribution",
      "outputs": [
        {
          "internalType": "uint256",
          "name": "",
          "type": "uint256"
        }
      ],
      "stateMutability": "view",
      "type": "function"
    },
    {
      "inputs": [
        {
          "internalType": "uint256",
          "name": "",
          "type": "uint256"
        }
      ],
      "name": "requests",
      "outputs": [
        {
          "internalType": "string",
          "name": "description",
          "type": "string"
        },
        {
          "internalType": "uint256",
          "name": "value",
          "type": "uint256"
        },
        {
          "internalType": "address payable",
          "name": "recipient",
          "type": "address"
        },
        {
          "internalType": "bool",
          "name": "complete",
          "type": "bool"
        },
        {
          "internalType": "uint256",
          "name": "approvalCount",
          "type": "uint256"
        }
      ],
      "stateMutability": "view",
      "type": "function"
    },
    {
      "inputs": [],
      "name": "contribute",
      "outputs": [],
      "stateMutability": "payable",
      "type": "function"
    },
    {
      "inputs": [
        {
          "internalType": "string",
          "name": "description",
          "type": "string"
        },
        {
          "internalType": "uint256",
          "name": "value",
          "type": "uint256"
        },
        {
          "internalType": "address payable",
          "name": "recipient",
          "type": "address"
        }
      ],
      "name": "createRequest",
      "outputs": [],
      "stateMutability": "nonpayable",
      "type": "function"
    },
    {
      "inputs": [
        {
          "internalType": "string",
          "name": "image",
          "type": "string"
        },
        {
          "internalType": "string",
          "name": "text",
          "type": "string"
        }
      ],
      "name": "addUpdate",
      "outputs": [],
      "stateMutability": "nonpayable",
      "type": "function"
    },
    {
      "inputs": [],
      "name": "getDetails",
      "outputs": [
        {
          "components": [
            {
              "internalType": "string",
              "name": "title",
              "type": "string"
            },
            {
              "internalType": "string",
              "name": "story",
              "type": "string"
            },
            {
              "internalType": "string",
              "name": "bannerImg",
              "type": "string"
            },
            {
              "internalType": "uint256",
              "name": "goal",
              "type": "uint256"
            },
            {
              "internalType": "uint256",
              "name": "funding",
              "type": "uint256"
            },
            {
              "internalType": "uint256",
              "name": "minContribution",
              "type": "uint256"
            },
            {
              "internalType": "address",
              "name": "campAddr",
              "type": "address"
            },
            {
              "internalType": "address",
              "name": "manager",
              "type": "address"
            },
            {
              "internalType": "uint256",
              "name": "balance",
              "type": "uint256"
            },
            {
              "components": [
                {
                  "internalType": "string",
                  "name": "image",
                  "type": "string"
                },
                {
                  "internalType": "string",
                  "name": "text",
                  "type": "string"
                }
              ],
              "internalType": "struct Campaign.Update[]",
              "name": "updates",
              "type": "tuple[]"
            }
          ],
          "internalType": "struct Campaign.Details",
          "name": "",
          "type": "tuple"
        }
      ],
      "stateMutability": "view",
      "type": "function"
    },
    {
      "inputs": [
        {
          "internalType": "uint256",
          "name": "index",
          "type": "uint256"
        }
      ],
      "name": "approveRequest",
      "outputs": [],
      "stateMutability": "nonpayable",
      "type": "function"
    },
    {
      "inputs": [
        {
          "internalType": "uint256",
          "name": "index",
          "type": "uint256"
        }
      ],
      "name": "finalizeRequest",
      "outputs": [],
      "stateMutability": "nonpayable",
      "type": "function"
    }
  ],
  "bytecode": "0x60806040523480156200001157600080fd5b506040516200204638038062002046833981810160405281019062000037919062000215565b32600660006101000a81548173ffffffffffffffffffffffffffffffffffffffff021916908373ffffffffffffffffffffffffffffffffffffffff160217905550816007819055508060028190555084600090805190602001906200009e929190620000dc565b508360019080519060200190620000b7929190620000dc565b508260059080519060200190620000d0929190620000dc565b50505050505062000476565b828054620000ea9062000381565b90600052602060002090601f0160209004810192826200010e57600085556200015a565b82601f106200012957805160ff19168380011785556200015a565b828001600101855582156200015a579182015b82811115620001595782518255916020019190600101906200013c565b5b5090506200016991906200016d565b5090565b5b80821115620001885760008160009055506001016200016e565b5090565b6000620001a36200019d846200030b565b620002e2565b905082815260208101848484011115620001bc57600080fd5b620001c98482856200034b565b509392505050565b600082601f830112620001e357600080fd5b8151620001f58482602086016200018c565b91505092915050565b6000815190506200020f816200045c565b92915050565b600080600080600060a086880312156200022e57600080fd5b600086015167ffffffffffffffff8111156200024957600080fd5b6200025788828901620001d1565b955050602086015167ffffffffffffffff8111156200027557600080fd5b6200028388828901620001d1565b945050604086015167ffffffffffffffff811115620002a157600080fd5b620002af88828901620001d1565b9350506060620002c288828901620001fe565b9250506080620002d588828901620001fe565b9150509295509295909350565b6000620002ee62000301565b9050620002fc8282620003b7565b919050565b6000604051905090565b600067ffffffffffffffff8211156200032957620003286200041c565b5b62000334826200044b565b9050602081019050919050565b6000819050919050565b60005b838110156200036b5780820151818401526020810190506200034e565b838111156200037b576000848401525b50505050565b600060028204905060018216806200039a57607f821691505b60208210811415620003b157620003b0620003ed565b5b50919050565b620003c2826200044b565b810181811067ffffffffffffffff82111715620003e457620003e36200041c565b5b80604052505050565b7f4e487b7100000000000000000000000000000000000000000000000000000000600052602260045260246000fd5b7f4e487b7100000000000000000000000000000000000000000000000000000000600052604160045260246000fd5b6000601f19601f8301169050919050565b620004678162000341565b81146200047357600080fd5b50565b611bc080620004866000396000f3fe6080604052600436106100915760003560e01c80638a9cfd55116100595780638a9cfd551461017f578063aaffadf3146101a8578063d7bb99ba146101d3578063d7d1bbdb146101dd578063fbbf93a01461020657610091565b80630344100614610096578063226d346a146100bf578063481c6a75146100e857806381d12c581461011357806382fde09314610154575b600080fd5b3480156100a257600080fd5b506100bd60048036038101906100b891906111fa565b610231565b005b3480156100cb57600080fd5b506100e660048036038101906100e19190611119565b610443565b005b3480156100f457600080fd5b506100fd6105e3565b60405161010a919061157d565b60405180910390f35b34801561011f57600080fd5b5061013a600480360381019061013591906111fa565b610609565b60405161014b959493929190611598565b60405180910390f35b34801561016057600080fd5b50610169610704565b60405161017691906116d4565b60405180910390f35b34801561018b57600080fd5b506101a660048036038101906101a1919061118e565b61070a565b005b3480156101b457600080fd5b506101bd6108f0565b6040516101ca91906116d4565b60405180910390f35b6101db6108f6565b005b3480156101e957600080fd5b5061020460048036038101906101ff91906111fa565b6109c6565b005b34801561021257600080fd5b5061021b610bbd565b60405161022891906116b2565b60405180910390f35b600660009054906101000a900473ffffffffffffffffffffffffffffffffffffffff1673ffffffffffffffffffffffffffffffffffffffff163373ffffffffffffffffffffffffffffffffffffffff16146102c1576040517f08c379a00000000000000000000000000000000000000000000000000000000081526004016102b890611692565b60405180910390fd5b6000600b82815481106102fd577f4e487b7100000000000000000000000000000000000000000000000000000000600052603260045260246000fd5b906000526020600020906004020190508060020160149054906101000a900460ff161561035f576040517f08c379a000000000000000000000000000000000000000000000000000000000815260040161035690611612565b60405180910390fd5b6002600a5461036e91906117ab565b8160030154116103b3576040517f08c379a00000000000000000000000000000000000000000000000000000000081526004016103aa90611632565b60405180910390fd5b8060020160009054906101000a900473ffffffffffffffffffffffffffffffffffffffff1673ffffffffffffffffffffffffffffffffffffffff166108fc82600101549081150290604051600060405180830381858888f19350505050158015610421573d6000803e3d6000fd5b5060018160020160146101000a81548160ff0219169083151502179055505050565b600660009054906101000a900473ffffffffffffffffffffffffffffffffffffffff1673ffffffffffffffffffffffffffffffffffffffff163373ffffffffffffffffffffffffffffffffffffffff16146104d3576040517f08c379a00000000000000000000000000000000000000000000000000000000081526004016104ca90611692565b60405180910390fd5b6000604051806040016040528086868080601f016020809104026020016040519081016040528093929190818152602001838380828437600081840152601f19601f82011690508083019250505050505050815260200184848080601f016020809104026020016040519081016040528093929190818152602001838380828437600081840152601f19601f820116905080830192505050505050508152509050600481908060018154018082558091505060019003906000526020600020906002020160009091909190915060008201518160000190805190602001906105bc929190610f83565b5060208201518160010190805190602001906105d9929190610f83565b5050505050505050565b600660009054906101000a900473ffffffffffffffffffffffffffffffffffffffff1681565b600b818154811061061957600080fd5b906000526020600020906004020160009150905080600001805461063c90611869565b80601f016020809104026020016040519081016040528092919081815260200182805461066890611869565b80156106b55780601f1061068a576101008083540402835291602001916106b5565b820191906000526020600020905b81548152906001019060200180831161069857829003601f168201915b5050505050908060010154908060020160009054906101000a900473ffffffffffffffffffffffffffffffffffffffff16908060020160149054906101000a900460ff16908060030154905085565b600a5481565b600660009054906101000a900473ffffffffffffffffffffffffffffffffffffffff1673ffffffffffffffffffffffffffffffffffffffff163373ffffffffffffffffffffffffffffffffffffffff161461079a576040517f08c379a000000000000000000000000000000000000000000000000000000000815260040161079190611692565b60405180910390fd5b60006040518060a0016040528086868080601f016020809104026020016040519081016040528093929190818152602001838380828437600081840152601f19601f8201169050808301925050505050505081526020018481526020018373ffffffffffffffffffffffffffffffffffffffff16815260200160001515815260200160008152509050600b819080600181540180825580915050600190039060005260206000209060040201600090919091909150600082015181600001908051906020019061086b929190610f83565b506020820151816001015560408201518160020160006101000a81548173ffffffffffffffffffffffffffffffffffffffff021916908373ffffffffffffffffffffffffffffffffffffffff16021790555060608201518160020160146101000a81548160ff0219169083151502179055506080820151816003015550505050505050565b60075481565b60075434101561093b576040517f08c379a0000000000000000000000000000000000000000000000000000000008152600401610932906115f2565b60405180910390fd5b6001600860003373ffffffffffffffffffffffffffffffffffffffff1673ffffffffffffffffffffffffffffffffffffffff16815260200190815260200160002060006101000a81548160ff02191690831515021790555034600360008282546109a59190611755565b92505081905550600a60008154809291906109bf9061189b565b9190505550565b600860003373ffffffffffffffffffffffffffffffffffffffff1673ffffffffffffffffffffffffffffffffffffffff16815260200190815260200160002060009054906101000a900460ff16610a52576040517f08c379a0000000000000000000000000000000000000000000000000000000008152600401610a4990611672565b60405180910390fd5b600960003373ffffffffffffffffffffffffffffffffffffffff1673ffffffffffffffffffffffffffffffffffffffff168152602001908152602001600020600082815260200190815260200160002060009054906101000a900460ff1615610af0576040517f08c379a0000000000000000000000000000000000000000000000000000000008152600401610ae790611652565b60405180910390fd5b6001600960003373ffffffffffffffffffffffffffffffffffffffff1673ffffffffffffffffffffffffffffffffffffffff168152602001908152602001600020600083815260200190815260200160002060006101000a81548160ff021916908315150217905550600b8181548110610b93577f4e487b7100000000000000000000000000000000000000000000000000000000600052603260045260246000fd5b90600052602060002090600402016003016000815480929190610bb59061189b565b919050555050565b610bc5611009565b600060405180610140016040528060008054610be090611869565b80601f0160208091040260200160405190810160405280929190818152602001828054610c0c90611869565b8015610c595780601f10610c2e57610100808354040283529160200191610c59565b820191906000526020600020905b815481529060010190602001808311610c3c57829003601f168201915b5050505050815260200160018054610c7090611869565b80601f0160208091040260200160405190810160405280929190818152602001828054610c9c90611869565b8015610ce95780601f10610cbe57610100808354040283529160200191610ce9565b820191906000526020600020905b815481529060010190602001808311610ccc57829003601f168201915b5050505050815260200160058054610d0090611869565b80601f0160208091040260200160405190810160405280929190818152602001828054610d2c90611869565b8015610d795780601f10610d4e57610100808354040283529160200191610d79565b820191906000526020600020905b815481529060010190602001808311610d5c57829003601f168201915b505050505081526020016002548152602001600354815260200160075481526020013073ffffffffffffffffffffffffffffffffffffffff168152602001600660009054906101000a900473ffffffffffffffffffffffffffffffffffffffff1673ffffffffffffffffffffffffffffffffffffffff1681526020014781526020016004805480602002602001604051908101604052809291908181526020016000905b82821015610f735783829060005260206000209060020201604051806040016040529081600082018054610e5090611869565b80601f0160208091040260200160405190810160405280929190818152602001828054610e7c90611869565b8015610ec95780601f10610e9e57610100808354040283529160200191610ec9565b820191906000526020600020905b815481529060010190602001808311610eac57829003601f168201915b50505050508152602001600182018054610ee290611869565b80601f0160208091040260200160405190810160405280929190818152602001828054610f0e90611869565b8015610f5b5780601f10610f3057610100808354040283529160200191610f5b565b820191906000526020600020905b815481529060010190602001808311610f3e57829003601f168201915b50505050508152505081526020019060010190610e1d565b5050505081525090508091505090565b828054610f8f90611869565b90600052602060002090601f016020900481019282610fb15760008555610ff8565b82601f10610fca57805160ff1916838001178555610ff8565b82800160010185558215610ff8579182015b82811115610ff7578251825591602001919060010190610fdc565b5b5090506110059190611088565b5090565b604051806101400160405280606081526020016060815260200160608152602001600081526020016000815260200160008152602001600073ffffffffffffffffffffffffffffffffffffffff168152602001600073ffffffffffffffffffffffffffffffffffffffff16815260200160008152602001606081525090565b5b808211156110a1576000816000905550600101611089565b5090565b6000813590506110b481611b5c565b92915050565b60008083601f8401126110cc57600080fd5b8235905067ffffffffffffffff8111156110e557600080fd5b6020830191508360018202830111156110fd57600080fd5b9250929050565b60008135905061111381611b73565b92915050565b6000806000806040858703121561112f57600080fd5b600085013567ffffffffffffffff81111561114957600080fd5b611155878288016110ba565b9450945050602085013567ffffffffffffffff81111561117457600080fd5b611180878288016110ba565b925092505092959194509250565b600080600080606085870312156111a457600080fd5b600085013567ffffffffffffffff8111156111be57600080fd5b6111ca878288016110ba565b945094505060206111dd87828801611104565b92505060406111ee878288016110a5565b91505092959194509250565b60006020828403121561120c57600080fd5b600061121a84828501611104565b91505092915050565b600061122f838361151b565b905092915050565b611240816117ee565b82525050565b61124f816117dc565b82525050565b61125e816117dc565b82525050565b600061126f826116ff565b6112798185611722565b93508360208202850161128b856116ef565b8060005b858110156112c757848403895281516112a88582611223565b94506112b383611715565b925060208a0199505060018101905061128f565b50829750879550505050505092915050565b6112e281611800565b82525050565b60006112f38261170a565b6112fd8185611733565b935061130d818560208601611836565b61131681611971565b840191505092915050565b600061132c8261170a565b6113368185611744565b9350611346818560208601611836565b61134f81611971565b840191505092915050565b6000611367603c83611744565b915061137282611982565b604082019050919050565b600061138a601983611744565b9150611395826119d1565b602082019050919050565b60006113ad603283611744565b91506113b8826119fa565b604082019050919050565b60006113d0601f83611744565b91506113db82611a49565b602082019050919050565b60006113f3606583611744565b91506113fe82611a72565b608082019050919050565b6000611416603c83611744565b915061142182611b0d565b604082019050919050565b600061014083016000830151848203600086015261144a82826112e8565b9150506020830151848203602086015261146482826112e8565b9150506040830151848203604086015261147e82826112e8565b9150506060830151611493606086018261155f565b5060808301516114a6608086018261155f565b5060a08301516114b960a086018261155f565b5060c08301516114cc60c0860182611246565b5060e08301516114df60e0860182611246565b506101008301516114f461010086018261155f565b5061012083015184820361012086015261150e8282611264565b9150508091505092915050565b6000604083016000830151848203600086015261153882826112e8565b9150506020830151848203602086015261155282826112e8565b9150508091505092915050565b6115688161182c565b82525050565b6115778161182c565b82525050565b60006020820190506115926000830184611255565b92915050565b600060a08201905081810360008301526115b28188611321565b90506115c1602083018761156e565b6115ce6040830186611237565b6115db60608301856112d9565b6115e8608083018461156e565b9695505050505050565b6000602082019050818103600083015261160b8161135a565b9050919050565b6000602082019050818103600083015261162b8161137d565b9050919050565b6000602082019050818103600083015261164b816113a0565b9050919050565b6000602082019050818103600083015261166b816113c3565b9050919050565b6000602082019050818103600083015261168b816113e6565b9050919050565b600060208201905081810360008301526116ab81611409565b9050919050565b600060208201905081810360008301526116cc818461142c565b905092915050565b60006020820190506116e9600083018461156e565b92915050565b6000819050602082019050919050565b600081519050919050565b600081519050919050565b6000602082019050919050565b600082825260208201905092915050565b600082825260208201905092915050565b600082825260208201905092915050565b60006117608261182c565b915061176b8361182c565b9250827fffffffffffffffffffffffffffffffffffffffffffffffffffffffffffffffff038211156117a05761179f6118e4565b5b828201905092915050565b60006117b68261182c565b91506117c18361182c565b9250826117d1576117d0611913565b5b828204905092915050565b60006117e78261180c565b9050919050565b60006117f98261180c565b9050919050565b60008115159050919050565b600073ffffffffffffffffffffffffffffffffffffffff82169050919050565b6000819050919050565b60005b83811015611854578082015181840152602081019050611839565b83811115611863576000848401525b50505050565b6000600282049050600182168061188157607f821691505b6020821081141561189557611894611942565b5b50919050565b60006118a68261182c565b91507fffffffffffffffffffffffffffffffffffffffffffffffffffffffffffffffff8214156118d9576118d86118e4565b5b600182019050919050565b7f4e487b7100000000000000000000000000000000000000000000000000000000600052601160045260246000fd5b7f4e487b7100000000000000000000000000000000000000000000000000000000600052601260045260246000fd5b7f4e487b7100000000000000000000000000000000000000000000000000000000600052602260045260246000fd5b6000601f19601f8301169050919050565b7f41746c65617374206d696e436f6e747269627574696f6e20776569207265717560008201527f6972656420746f206265636f6d65206120636f6e7472696275746f7200000000602082015250565b7f5265717565737420616c72656164792066696e616c6973656400000000000000600082015250565b7f4d616a6f72697479206469646e7420617070726f76656420746865207265717560008201527f6573742c2063616e742066696e616c6973650000000000000000000000000000602082015250565b7f7265717565737420616c726561647920617070726f76656420627920796f7500600082015250565b7f596f7520646f6e742068617665206120766f74696e6720726967687420696e2060008201527f746869732063616d706169676e2c206b696e646c7920636f6e7472696275746560208201527f206d696e696d756d20616d6f756e74206265206265636f6d6520616e2061707060408201527f726f766572000000000000000000000000000000000000000000000000000000606082015250565b7f546869732066756e6374696f6e2063616e206f6e6c792062652063616c6c656460008201527f206279206d616e61676572206f6620746869732063616d706169676e00000000602082015250565b611b65816117ee565b8114611b7057600080fd5b50565b611b7c8161182c565b8114611b8757600080fd5b5056fea26469706673582212204bdbb31d783c7c04b8970e2d38e6c7a3748b8309fae727d853f4fce26dc0f8f664736f6c63430008010033",
  "immutableReferences": {},
  "source": "// \"SPDX-License-Identifier: UNLICENSED\"\npragma solidity ^0.8.0;\n\ncontract Campaign{\n    \n    struct Request {\n        string description;\n        uint value;\n        address payable recipient;\n        bool complete;\n        uint approvalCount;\n    }\n    \n    struct Update {\n        string image;\n        string text;\n    }\n    \n    struct Details{\n        string title;\n        string story;\n        string bannerImg;\n        uint goal;\n        uint funding;\n        uint minContribution;\n        address campAddr;\n        address manager;\n        uint balance;\n        Update[] updates;\n    }\n    \n    \n    string title;\n    string story;\n    uint goal;\n    uint funding;\n    Update [] updates;\n    string bannerImg;\n    \n    address public manager;\n    uint public minContribution;\n    mapping(address=>bool) approvers;\n    mapping(address=>mapping(uint=>bool)) approvals; // approvals[address][i] = true means user at \"address\" approved Request at index \"i\" in requests\n    uint public approversCount;\n    Request[] public requests;\n    \n    modifier restricted() {\n        require(msg.sender==manager,\"This function can only be called by manager of this campaign\");\n        _;\n    }\n    \n    constructor(string memory _title, string memory _story, string memory _bannerImg, uint _minContribution, uint _goal) {\n        manager = tx.origin;\n        minContribution = _minContribution;\n        goal = _goal;\n        title = _title;\n        story = _story;\n        bannerImg = _bannerImg;\n    }\n    \n    function contribute() external payable{\n        require(msg.value >= minContribution,\"Atleast minContribution wei required to become a contributor\");\n        approvers[msg.sender] = true;\n        funding+=msg.value;\n        approversCount++;\n    }\n    \n    function createRequest(string calldata description, uint value, address payable recipient) public restricted {\n        Request memory request = Request({\n            description: description,\n            value: value,\n            recipient: recipient,\n            complete: false,\n            approvalCount: 0\n        });\n        \n        requests.push(request);\n    }\n    \n    function addUpdate(string calldata image, string calldata text) external restricted\n    {\n        Update memory newUpdate = Update({\n            image: image,\n            text: text\n        });\n        \n        updates.push(newUpdate);\n    }\n    \n    function getDetails() view public returns(Details memory) { // title, story, bannerimg, funding, goal, updates\n        Details memory campDetails = Details(title, story, bannerImg, goal, funding, minContribution, address(this), manager, address(this).balance, updates);\n        \n        return campDetails;\n    }\n    \n    function approveRequest(uint index) external {\n        \n        require(approvers[msg.sender], \"You dont have a voting right in this campaign, kindly contribute minimum amount be become an approver\");\n        require(!approvals[msg.sender][index], \"request already approved by you\");\n        \n        approvals[msg.sender][index] = true;\n        requests[index].approvalCount++;\n    }\n    \n    function finalizeRequest(uint index) external restricted {\n        Request storage request = requests[index]; // request is reference to requests[index]\n        require(!request.complete,\"Request already finalised\");\n        require(request.approvalCount > (approversCount/2), \"Majority didnt approved the request, cant finalise\");\n        \n        request.recipient.transfer(request.value);\n        request.complete = true;\n    }\n    \n}\n",
  "sourcePath": "/home/shikhar/Desktop/Blockchain/initialize/contracts/Campaign.sol",
  "compiler": {
    "name": "solc",
    "version": "0.8.1+commit.df193b15.Emscripten.clang"
  },
  "schemaVersion": "3.3.4",
  "updatedAt": "2021-04-28T04:02:43.884Z",
  "devdoc": {
    "kind": "dev",
    "methods": {},
    "version": 1
  },
  "userdoc": {
    "kind": "user",
    "methods": {},
    "version": 1
  }
}