{
  "contractName": "Campaign",
  "abi": [
    {
      "inputs": [
        {
          "internalType": "string",
          "name": "_title",
          "type": "string"
        },
        {
          "internalType": "string",
          "name": "_story",
          "type": "string"
        },
        {
          "internalType": "string",
          "name": "_bannerImg",
          "type": "string"
        },
        {
          "internalType": "uint256",
          "name": "_minContribution",
          "type": "uint256"
        },
        {
          "internalType": "uint256",
          "name": "_goal",
          "type": "uint256"
        }
      ],
      "stateMutability": "nonpayable",
      "type": "constructor"
    },
    {
      "inputs": [
        {
          "internalType": "address",
          "name": "",
          "type": "address"
        },
        {
          "internalType": "uint256",
          "name": "",
          "type": "uint256"
        }
      ],
      "name": "approvals",
      "outputs": [
        {
          "internalType": "bool",
          "name": "",
          "type": "bool"
        }
      ],
      "stateMutability": "view",
      "type": "function"
    },
    {
      "inputs": [
        {
          "internalType": "address",
          "name": "",
          "type": "address"
        }
      ],
      "name": "approvers",
      "outputs": [
        {
          "internalType": "bool",
          "name": "",
          "type": "bool"
        }
      ],
      "stateMutability": "view",
      "type": "function"
    },
    {
      "inputs": [],
      "name": "approversCount",
      "outputs": [
        {
          "internalType": "uint256",
          "name": "",
          "type": "uint256"
        }
      ],
      "stateMutability": "view",
      "type": "function"
    },
    {
      "inputs": [],
      "name": "manager",
      "outputs": [
        {
          "internalType": "address",
          "name": "",
          "type": "address"
        }
      ],
      "stateMutability": "view",
      "type": "function"
    },
    {
      "inputs": [],
      "name": "minContribution",
      "outputs": [
        {
          "internalType": "uint256",
          "name": "",
          "type": "uint256"
        }
      ],
      "stateMutability": "view",
      "type": "function"
    },
    {
      "inputs": [
        {
          "internalType": "uint256",
          "name": "",
          "type": "uint256"
        }
      ],
      "name": "requests",
      "outputs": [
        {
          "internalType": "string",
          "name": "description",
          "type": "string"
        },
        {
          "internalType": "uint256",
          "name": "value",
          "type": "uint256"
        },
        {
          "internalType": "address payable",
          "name": "recipient",
          "type": "address"
        },
        {
          "internalType": "bool",
          "name": "complete",
          "type": "bool"
        },
        {
          "internalType": "uint256",
          "name": "approvalCount",
          "type": "uint256"
        }
      ],
      "stateMutability": "view",
      "type": "function"
    },
    {
      "inputs": [
        {
          "internalType": "uint256",
          "name": "",
          "type": "uint256"
        }
      ],
      "name": "updates",
      "outputs": [
        {
          "internalType": "string",
          "name": "image",
          "type": "string"
        },
        {
          "internalType": "string",
          "name": "text",
          "type": "string"
        }
      ],
      "stateMutability": "view",
      "type": "function"
    },
    {
      "inputs": [],
      "name": "contribute",
      "outputs": [],
      "stateMutability": "payable",
      "type": "function"
    },
    {
      "inputs": [
        {
          "internalType": "string",
          "name": "description",
          "type": "string"
        },
        {
          "internalType": "uint256",
          "name": "value",
          "type": "uint256"
        },
        {
          "internalType": "address payable",
          "name": "recipient",
          "type": "address"
        }
      ],
      "name": "createRequest",
      "outputs": [],
      "stateMutability": "nonpayable",
      "type": "function"
    },
    {
      "inputs": [
        {
          "internalType": "string",
          "name": "image",
          "type": "string"
        },
        {
          "internalType": "string",
          "name": "text",
          "type": "string"
        }
      ],
      "name": "addUpdate",
      "outputs": [],
      "stateMutability": "nonpayable",
      "type": "function"
    },
    {
      "inputs": [],
      "name": "getDetails",
      "outputs": [
        {
          "components": [
            {
              "internalType": "string",
              "name": "title",
              "type": "string"
            },
            {
              "internalType": "string",
              "name": "story",
              "type": "string"
            },
            {
              "internalType": "string",
              "name": "bannerImg",
              "type": "string"
            },
            {
              "internalType": "uint256",
              "name": "goal",
              "type": "uint256"
            },
            {
              "internalType": "uint256",
              "name": "funding",
              "type": "uint256"
            },
            {
              "internalType": "uint256",
              "name": "minContribution",
              "type": "uint256"
            },
            {
              "internalType": "address",
              "name": "campAddr",
              "type": "address"
            },
            {
              "internalType": "address",
              "name": "manager",
              "type": "address"
            },
            {
              "internalType": "uint256",
              "name": "balance",
              "type": "uint256"
            },
            {
              "components": [
                {
                  "internalType": "string",
                  "name": "image",
                  "type": "string"
                },
                {
                  "internalType": "string",
                  "name": "text",
                  "type": "string"
                }
              ],
              "internalType": "struct Campaign.Update[]",
              "name": "updates",
              "type": "tuple[]"
            }
          ],
          "internalType": "struct Campaign.Details",
          "name": "",
          "type": "tuple"
        }
      ],
      "stateMutability": "view",
      "type": "function"
    },
    {
      "inputs": [],
      "name": "getUpdates",
      "outputs": [
        {
          "components": [
            {
              "internalType": "string",
              "name": "image",
              "type": "string"
            },
            {
              "internalType": "string",
              "name": "text",
              "type": "string"
            }
          ],
          "internalType": "struct Campaign.Update[]",
          "name": "",
          "type": "tuple[]"
        }
      ],
      "stateMutability": "view",
      "type": "function"
    },
    {
      "inputs": [],
      "name": "getRequests",
      "outputs": [
        {
          "components": [
            {
              "internalType": "string",
              "name": "description",
              "type": "string"
            },
            {
              "internalType": "uint256",
              "name": "value",
              "type": "uint256"
            },
            {
              "internalType": "address payable",
              "name": "recipient",
              "type": "address"
            },
            {
              "internalType": "bool",
              "name": "complete",
              "type": "bool"
            },
            {
              "internalType": "uint256",
              "name": "approvalCount",
              "type": "uint256"
            }
          ],
          "internalType": "struct Campaign.Request[]",
          "name": "",
          "type": "tuple[]"
        }
      ],
      "stateMutability": "view",
      "type": "function"
    },
    {
      "inputs": [
        {
          "internalType": "uint256",
          "name": "index",
          "type": "uint256"
        }
      ],
      "name": "approveRequest",
      "outputs": [],
      "stateMutability": "nonpayable",
      "type": "function"
    },
    {
      "inputs": [
        {
          "internalType": "uint256",
          "name": "index",
          "type": "uint256"
        }
      ],
      "name": "finalizeRequest",
      "outputs": [],
      "stateMutability": "nonpayable",
      "type": "function"
    }
  ],
  "bytecode": "0x60806040523480156200001157600080fd5b5060405162002a6538038062002a65833981810160405281019062000037919062000215565b32600660006101000a81548173ffffffffffffffffffffffffffffffffffffffff021916908373ffffffffffffffffffffffffffffffffffffffff160217905550816007819055508060028190555084600090805190602001906200009e929190620000dc565b508360019080519060200190620000b7929190620000dc565b508260059080519060200190620000d0929190620000dc565b50505050505062000476565b828054620000ea9062000381565b90600052602060002090601f0160209004810192826200010e57600085556200015a565b82601f106200012957805160ff19168380011785556200015a565b828001600101855582156200015a579182015b82811115620001595782518255916020019190600101906200013c565b5b5090506200016991906200016d565b5090565b5b80821115620001885760008160009055506001016200016e565b5090565b6000620001a36200019d846200030b565b620002e2565b905082815260208101848484011115620001bc57600080fd5b620001c98482856200034b565b509392505050565b600082601f830112620001e357600080fd5b8151620001f58482602086016200018c565b91505092915050565b6000815190506200020f816200045c565b92915050565b600080600080600060a086880312156200022e57600080fd5b600086015167ffffffffffffffff8111156200024957600080fd5b6200025788828901620001d1565b955050602086015167ffffffffffffffff8111156200027557600080fd5b6200028388828901620001d1565b945050604086015167ffffffffffffffff811115620002a157600080fd5b620002af88828901620001d1565b9350506060620002c288828901620001fe565b9250506080620002d588828901620001fe565b9150509295509295909350565b6000620002ee62000301565b9050620002fc8282620003b7565b919050565b6000604051905090565b600067ffffffffffffffff8211156200032957620003286200041c565b5b62000334826200044b565b9050602081019050919050565b6000819050919050565b60005b838110156200036b5780820151818401526020810190506200034e565b838111156200037b576000848401525b50505050565b600060028204905060018216806200039a57607f821691505b60208210811415620003b157620003b0620003ed565b5b50919050565b620003c2826200044b565b810181811067ffffffffffffffff82111715620003e457620003e36200041c565b5b80604052505050565b7f4e487b7100000000000000000000000000000000000000000000000000000000600052602260045260246000fd5b7f4e487b7100000000000000000000000000000000000000000000000000000000600052604160045260246000fd5b6000601f19601f8301169050919050565b620004678162000341565b81146200047357600080fd5b50565b6125df80620004866000396000f3fe6080604052600436106100e85760003560e01c80638a9cfd551161008a578063d7bb99ba11610059578063d7bb99ba146102fb578063d7d1bbdb14610305578063fbbf93a01461032e578063ffabc67314610359576100e8565b80638a9cfd551461023e578063a8a1d27314610267578063aaffadf314610292578063b4c2f727146102bd576100e8565b8063481c6a75116100c6578063481c6a751461017c57806381d12c58146101a757806382fde093146101e85780638813ce1214610213576100e8565b806303441006146100ed5780630a14439114610116578063226d346a14610153575b600080fd5b3480156100f957600080fd5b50610114600480360381019061010f91906118fe565b610396565b005b34801561012257600080fd5b5061013d600480360381019061013891906117b8565b6105ef565b60405161014a9190611e95565b60405180910390f35b34801561015f57600080fd5b5061017a6004803603810190610175919061181d565b61060f565b005b34801561018857600080fd5b506101916107af565b60405161019e9190611e36565b60405180910390f35b3480156101b357600080fd5b506101ce60048036038101906101c991906118fe565b6107d5565b6040516101df959493929190611ee7565b60405180910390f35b3480156101f457600080fd5b506101fd6108d0565b60405161020a9190612043565b60405180910390f35b34801561021f57600080fd5b506102286108d6565b6040516102359190611e51565b60405180910390f35b34801561024a57600080fd5b5061026560048036038101906102609190611892565b610a4c565b005b34801561027357600080fd5b5061027c610c32565b6040516102899190611e73565b60405180910390f35b34801561029e57600080fd5b506102a7610db5565b6040516102b49190612043565b60405180910390f35b3480156102c957600080fd5b506102e460048036038101906102df91906118fe565b610dbb565b6040516102f2929190611eb0565b60405180910390f35b610303610eff565b005b34801561031157600080fd5b5061032c600480360381019061032791906118fe565b611021565b005b34801561033a57600080fd5b50610343611218565b6040516103509190612021565b60405180910390f35b34801561036557600080fd5b50610380600480360381019061037b91906117e1565b6115de565b60405161038d9190611e95565b60405180910390f35b600660009054906101000a900473ffffffffffffffffffffffffffffffffffffffff1673ffffffffffffffffffffffffffffffffffffffff163373ffffffffffffffffffffffffffffffffffffffff1614610426576040517f08c379a000000000000000000000000000000000000000000000000000000000815260040161041d90612001565b60405180910390fd5b6000600b8281548110610462577f4e487b7100000000000000000000000000000000000000000000000000000000600052603260045260246000fd5b906000526020600020906004020190508060020160149054906101000a900460ff16156104c4576040517f08c379a00000000000000000000000000000000000000000000000000000000081526004016104bb90611f61565b60405180910390fd5b6002600a546104d39190612164565b816003015411610518576040517f08c379a000000000000000000000000000000000000000000000000000000000815260040161050f90611f81565b60405180910390fd5b478160010154111561055f576040517f08c379a000000000000000000000000000000000000000000000000000000000815260040161055690611fc1565b60405180910390fd5b8060020160009054906101000a900473ffffffffffffffffffffffffffffffffffffffff1673ffffffffffffffffffffffffffffffffffffffff166108fc82600101549081150290604051600060405180830381858888f193505050501580156105cd573d6000803e3d6000fd5b5060018160020160146101000a81548160ff0219169083151502179055505050565b60086020528060005260406000206000915054906101000a900460ff1681565b600660009054906101000a900473ffffffffffffffffffffffffffffffffffffffff1673ffffffffffffffffffffffffffffffffffffffff163373ffffffffffffffffffffffffffffffffffffffff161461069f576040517f08c379a000000000000000000000000000000000000000000000000000000000815260040161069690612001565b60405180910390fd5b6000604051806040016040528086868080601f016020809104026020016040519081016040528093929190818152602001838380828437600081840152601f19601f82011690508083019250505050505050815260200184848080601f016020809104026020016040519081016040528093929190818152602001838380828437600081840152601f19601f8201169050808301925050505050505081525090506004819080600181540180825580915050600190039060005260206000209060020201600090919091909150600082015181600001908051906020019061078892919061160d565b5060208201518160010190805190602001906107a592919061160d565b5050505050505050565b600660009054906101000a900473ffffffffffffffffffffffffffffffffffffffff1681565b600b81815481106107e557600080fd5b906000526020600020906004020160009150905080600001805461080890612222565b80601f016020809104026020016040519081016040528092919081815260200182805461083490612222565b80156108815780601f1061085657610100808354040283529160200191610881565b820191906000526020600020905b81548152906001019060200180831161086457829003601f168201915b5050505050908060010154908060020160009054906101000a900473ffffffffffffffffffffffffffffffffffffffff16908060020160149054906101000a900460ff16908060030154905085565b600a5481565b6060600b805480602002602001604051908101604052809291908181526020016000905b82821015610a4357838290600052602060002090600402016040518060a001604052908160008201805461092d90612222565b80601f016020809104026020016040519081016040528092919081815260200182805461095990612222565b80156109a65780601f1061097b576101008083540402835291602001916109a6565b820191906000526020600020905b81548152906001019060200180831161098957829003601f168201915b50505050508152602001600182015481526020016002820160009054906101000a900473ffffffffffffffffffffffffffffffffffffffff1673ffffffffffffffffffffffffffffffffffffffff1673ffffffffffffffffffffffffffffffffffffffff1681526020016002820160149054906101000a900460ff16151515158152602001600382015481525050815260200190600101906108fa565b50505050905090565b600660009054906101000a900473ffffffffffffffffffffffffffffffffffffffff1673ffffffffffffffffffffffffffffffffffffffff163373ffffffffffffffffffffffffffffffffffffffff1614610adc576040517f08c379a0000000000000000000000000000000000000000000000000000000008152600401610ad390612001565b60405180910390fd5b60006040518060a0016040528086868080601f016020809104026020016040519081016040528093929190818152602001838380828437600081840152601f19601f8201169050808301925050505050505081526020018481526020018373ffffffffffffffffffffffffffffffffffffffff16815260200160001515815260200160008152509050600b8190806001815401808255809150506001900390600052602060002090600402016000909190919091506000820151816000019080519060200190610bad92919061160d565b506020820151816001015560408201518160020160006101000a81548173ffffffffffffffffffffffffffffffffffffffff021916908373ffffffffffffffffffffffffffffffffffffffff16021790555060608201518160020160146101000a81548160ff0219169083151502179055506080820151816003015550505050505050565b60606004805480602002602001604051908101604052809291908181526020016000905b82821015610dac5783829060005260206000209060020201604051806040016040529081600082018054610c8990612222565b80601f0160208091040260200160405190810160405280929190818152602001828054610cb590612222565b8015610d025780601f10610cd757610100808354040283529160200191610d02565b820191906000526020600020905b815481529060010190602001808311610ce557829003601f168201915b50505050508152602001600182018054610d1b90612222565b80601f0160208091040260200160405190810160405280929190818152602001828054610d4790612222565b8015610d945780601f10610d6957610100808354040283529160200191610d94565b820191906000526020600020905b815481529060010190602001808311610d7757829003601f168201915b50505050508152505081526020019060010190610c56565b50505050905090565b60075481565b60048181548110610dcb57600080fd5b9060005260206000209060020201600091509050806000018054610dee90612222565b80601f0160208091040260200160405190810160405280929190818152602001828054610e1a90612222565b8015610e675780601f10610e3c57610100808354040283529160200191610e67565b820191906000526020600020905b815481529060010190602001808311610e4a57829003601f168201915b505050505090806001018054610e7c90612222565b80601f0160208091040260200160405190810160405280929190818152602001828054610ea890612222565b8015610ef55780601f10610eca57610100808354040283529160200191610ef5565b820191906000526020600020905b815481529060010190602001808311610ed857829003601f168201915b5050505050905082565b600754341015610f44576040517f08c379a0000000000000000000000000000000000000000000000000000000008152600401610f3b90611f41565b60405180910390fd5b600860003373ffffffffffffffffffffffffffffffffffffffff1673ffffffffffffffffffffffffffffffffffffffff16815260200190815260200160002060009054906101000a900460ff16610fae57600a6000815480929190610fa890612254565b91905055505b6001600860003373ffffffffffffffffffffffffffffffffffffffff1673ffffffffffffffffffffffffffffffffffffffff16815260200190815260200160002060006101000a81548160ff0219169083151502179055503460036000828254611018919061210e565b92505081905550565b600860003373ffffffffffffffffffffffffffffffffffffffff1673ffffffffffffffffffffffffffffffffffffffff16815260200190815260200160002060009054906101000a900460ff166110ad576040517f08c379a00000000000000000000000000000000000000000000000000000000081526004016110a490611fe1565b60405180910390fd5b600960003373ffffffffffffffffffffffffffffffffffffffff1673ffffffffffffffffffffffffffffffffffffffff168152602001908152602001600020600082815260200190815260200160002060009054906101000a900460ff161561114b576040517f08c379a000000000000000000000000000000000000000000000000000000000815260040161114290611fa1565b60405180910390fd5b6001600960003373ffffffffffffffffffffffffffffffffffffffff1673ffffffffffffffffffffffffffffffffffffffff168152602001908152602001600020600083815260200190815260200160002060006101000a81548160ff021916908315150217905550600b81815481106111ee577f4e487b7100000000000000000000000000000000000000000000000000000000600052603260045260246000fd5b9060005260206000209060040201600301600081548092919061121090612254565b919050555050565b611220611693565b60006040518061014001604052806000805461123b90612222565b80601f016020809104026020016040519081016040528092919081815260200182805461126790612222565b80156112b45780601f10611289576101008083540402835291602001916112b4565b820191906000526020600020905b81548152906001019060200180831161129757829003601f168201915b50505050508152602001600180546112cb90612222565b80601f01602080910402602001604051908101604052809291908181526020018280546112f790612222565b80156113445780601f1061131957610100808354040283529160200191611344565b820191906000526020600020905b81548152906001019060200180831161132757829003601f168201915b505050505081526020016005805461135b90612222565b80601f016020809104026020016040519081016040528092919081815260200182805461138790612222565b80156113d45780601f106113a9576101008083540402835291602001916113d4565b820191906000526020600020905b8154815290600101906020018083116113b757829003601f168201915b505050505081526020016002548152602001600354815260200160075481526020013073ffffffffffffffffffffffffffffffffffffffff168152602001600660009054906101000a900473ffffffffffffffffffffffffffffffffffffffff1673ffffffffffffffffffffffffffffffffffffffff1681526020014781526020016004805480602002602001604051908101604052809291908181526020016000905b828210156115ce57838290600052602060002090600202016040518060400160405290816000820180546114ab90612222565b80601f01602080910402602001604051908101604052809291908181526020018280546114d790612222565b80156115245780601f106114f957610100808354040283529160200191611524565b820191906000526020600020905b81548152906001019060200180831161150757829003601f168201915b5050505050815260200160018201805461153d90612222565b80601f016020809104026020016040519081016040528092919081815260200182805461156990612222565b80156115b65780601f1061158b576101008083540402835291602001916115b6565b820191906000526020600020905b81548152906001019060200180831161159957829003601f168201915b50505050508152505081526020019060010190611478565b5050505081525090508091505090565b60096020528160005260406000206020528060005260406000206000915091509054906101000a900460ff1681565b82805461161990612222565b90600052602060002090601f01602090048101928261163b5760008555611682565b82601f1061165457805160ff1916838001178555611682565b82800160010185558215611682579182015b82811115611681578251825591602001919060010190611666565b5b50905061168f9190611712565b5090565b604051806101400160405280606081526020016060815260200160608152602001600081526020016000815260200160008152602001600073ffffffffffffffffffffffffffffffffffffffff168152602001600073ffffffffffffffffffffffffffffffffffffffff16815260200160008152602001606081525090565b5b8082111561172b576000816000905550600101611713565b5090565b60008135905061173e81612564565b92915050565b6000813590506117538161257b565b92915050565b60008083601f84011261176b57600080fd5b8235905067ffffffffffffffff81111561178457600080fd5b60208301915083600182028301111561179c57600080fd5b9250929050565b6000813590506117b281612592565b92915050565b6000602082840312156117ca57600080fd5b60006117d88482850161172f565b91505092915050565b600080604083850312156117f457600080fd5b60006118028582860161172f565b9250506020611813858286016117a3565b9150509250929050565b6000806000806040858703121561183357600080fd5b600085013567ffffffffffffffff81111561184d57600080fd5b61185987828801611759565b9450945050602085013567ffffffffffffffff81111561187857600080fd5b61188487828801611759565b925092505092959194509250565b600080600080606085870312156118a857600080fd5b600085013567ffffffffffffffff8111156118c257600080fd5b6118ce87828801611759565b945094505060206118e1878288016117a3565b92505060406118f287828801611744565b91505092959194509250565b60006020828403121561191057600080fd5b600061191e848285016117a3565b91505092915050565b60006119338383611d5e565b905092915050565b60006119478383611dd4565b905092915050565b611958816121a7565b82525050565b611967816121a7565b82525050565b61197681612195565b82525050565b61198581612195565b82525050565b60006119968261207e565b6119a081856120b9565b9350836020820285016119b28561205e565b8060005b858110156119ee57848403895281516119cf8582611927565b94506119da8361209f565b925060208a019950506001810190506119b6565b50829750879550505050505092915050565b6000611a0b82612089565b611a1581856120ca565b935083602082028501611a278561206e565b8060005b85811015611a635784840389528151611a44858261193b565b9450611a4f836120ac565b925060208a01995050600181019050611a2b565b50829750879550505050505092915050565b6000611a8082612089565b611a8a81856120db565b935083602082028501611a9c8561206e565b8060005b85811015611ad85784840389528151611ab9858261193b565b9450611ac4836120ac565b925060208a01995050600181019050611aa0565b50829750879550505050505092915050565b611af3816121b9565b82525050565b611b02816121b9565b82525050565b6000611b1382612094565b611b1d81856120ec565b9350611b2d8185602086016121ef565b611b368161232a565b840191505092915050565b6000611b4c82612094565b611b5681856120fd565b9350611b668185602086016121ef565b611b6f8161232a565b840191505092915050565b6000611b87603c836120fd565b9150611b928261233b565b604082019050919050565b6000611baa6019836120fd565b9150611bb58261238a565b602082019050919050565b6000611bcd6032836120fd565b9150611bd8826123b3565b604082019050919050565b6000611bf0601f836120fd565b9150611bfb82612402565b602082019050919050565b6000611c136026836120fd565b9150611c1e8261242b565b604082019050919050565b6000611c366065836120fd565b9150611c418261247a565b608082019050919050565b6000611c59603c836120fd565b9150611c6482612515565b604082019050919050565b6000610140830160008301518482036000860152611c8d8282611b08565b91505060208301518482036020860152611ca78282611b08565b91505060408301518482036040860152611cc18282611b08565b9150506060830151611cd66060860182611e18565b506080830151611ce96080860182611e18565b5060a0830151611cfc60a0860182611e18565b5060c0830151611d0f60c086018261196d565b5060e0830151611d2260e086018261196d565b50610100830151611d37610100860182611e18565b50610120830151848203610120860152611d518282611a00565b9150508091505092915050565b600060a0830160008301518482036000860152611d7b8282611b08565b9150506020830151611d906020860182611e18565b506040830151611da3604086018261194f565b506060830151611db66060860182611aea565b506080830151611dc96080860182611e18565b508091505092915050565b60006040830160008301518482036000860152611df18282611b08565b91505060208301518482036020860152611e0b8282611b08565b9150508091505092915050565b611e21816121e5565b82525050565b611e30816121e5565b82525050565b6000602082019050611e4b600083018461197c565b92915050565b60006020820190508181036000830152611e6b818461198b565b905092915050565b60006020820190508181036000830152611e8d8184611a75565b905092915050565b6000602082019050611eaa6000830184611af9565b92915050565b60006040820190508181036000830152611eca8185611b41565b90508181036020830152611ede8184611b41565b90509392505050565b600060a0820190508181036000830152611f018188611b41565b9050611f106020830187611e27565b611f1d604083018661195e565b611f2a6060830185611af9565b611f376080830184611e27565b9695505050505050565b60006020820190508181036000830152611f5a81611b7a565b9050919050565b60006020820190508181036000830152611f7a81611b9d565b9050919050565b60006020820190508181036000830152611f9a81611bc0565b9050919050565b60006020820190508181036000830152611fba81611be3565b9050919050565b60006020820190508181036000830152611fda81611c06565b9050919050565b60006020820190508181036000830152611ffa81611c29565b9050919050565b6000602082019050818103600083015261201a81611c4c565b9050919050565b6000602082019050818103600083015261203b8184611c6f565b905092915050565b60006020820190506120586000830184611e27565b92915050565b6000819050602082019050919050565b6000819050602082019050919050565b600081519050919050565b600081519050919050565b600081519050919050565b6000602082019050919050565b6000602082019050919050565b600082825260208201905092915050565b600082825260208201905092915050565b600082825260208201905092915050565b600082825260208201905092915050565b600082825260208201905092915050565b6000612119826121e5565b9150612124836121e5565b9250827fffffffffffffffffffffffffffffffffffffffffffffffffffffffffffffffff038211156121595761215861229d565b5b828201905092915050565b600061216f826121e5565b915061217a836121e5565b92508261218a576121896122cc565b5b828204905092915050565b60006121a0826121c5565b9050919050565b60006121b2826121c5565b9050919050565b60008115159050919050565b600073ffffffffffffffffffffffffffffffffffffffff82169050919050565b6000819050919050565b60005b8381101561220d5780820151818401526020810190506121f2565b8381111561221c576000848401525b50505050565b6000600282049050600182168061223a57607f821691505b6020821081141561224e5761224d6122fb565b5b50919050565b600061225f826121e5565b91507fffffffffffffffffffffffffffffffffffffffffffffffffffffffffffffffff8214156122925761229161229d565b5b600182019050919050565b7f4e487b7100000000000000000000000000000000000000000000000000000000600052601160045260246000fd5b7f4e487b7100000000000000000000000000000000000000000000000000000000600052601260045260246000fd5b7f4e487b7100000000000000000000000000000000000000000000000000000000600052602260045260246000fd5b6000601f19601f8301169050919050565b7f41746c65617374206d696e436f6e747269627574696f6e20776569207265717560008201527f6972656420746f206265636f6d65206120636f6e7472696275746f7200000000602082015250565b7f5265717565737420616c72656164792066696e616c6973656400000000000000600082015250565b7f4d616a6f72697479206469646e7420617070726f76656420746865207265717560008201527f6573742c2063616e742066696e616c6973650000000000000000000000000000602082015250565b7f7265717565737420616c726561647920617070726f76656420627920796f7500600082015250565b7f4e6f7420656e6f7567682062616c616e636520746f2066696e616c697a65207260008201527f6571756573740000000000000000000000000000000000000000000000000000602082015250565b7f596f7520646f6e742068617665206120766f74696e6720726967687420696e2060008201527f746869732063616d706169676e2c206b696e646c7920636f6e7472696275746560208201527f206d696e696d756d20616d6f756e74206265206265636f6d6520616e2061707060408201527f726f766572000000000000000000000000000000000000000000000000000000606082015250565b7f546869732066756e6374696f6e2063616e206f6e6c792062652063616c6c656460008201527f206279206d616e61676572206f6620746869732063616d706169676e00000000602082015250565b61256d81612195565b811461257857600080fd5b50565b612584816121a7565b811461258f57600080fd5b50565b61259b816121e5565b81146125a657600080fd5b5056fea2646970667358221220fe0c6f8403e98e77df8d4499c2b1c3cb655a72b49cdf7aba25b952b7190eda6164736f6c63430008010033",
  "immutableReferences": {},
  "source": "// \"SPDX-License-Identifier: UNLICENSED\"\npragma solidity ^0.8.0;\n\ncontract Campaign{\n    \n    struct Request {\n        string description;\n        uint value;\n        address payable recipient;\n        bool complete;\n        uint approvalCount;\n    }\n    \n    struct Update {\n        string image;\n        string text;\n    }\n    \n    struct Details{\n        string title;\n        string story;\n        string bannerImg;\n        uint goal;\n        uint funding;\n        uint minContribution;\n        address campAddr;\n        address manager;\n        uint balance;\n        Update[] updates;\n    }\n    \n    \n    string title;\n    string story;\n    uint goal;\n    uint funding;\n    Update [] public updates;\n    string bannerImg;\n    \n    address public manager;\n    uint public minContribution;\n    mapping(address=>bool) public approvers;\n    mapping(address=>mapping(uint=>bool)) public approvals; // approvals[address][i] = true means user at \"address\" approved Request at index \"i\" in requests\n    uint public approversCount;\n    Request[] public requests;\n    \n    modifier restricted() {\n        require(msg.sender==manager,\"This function can only be called by manager of this campaign\");\n        _;\n    }\n    \n    constructor(string memory _title, string memory _story, string memory _bannerImg, uint _minContribution, uint _goal) {\n        manager = tx.origin;\n        minContribution = _minContribution;\n        goal = _goal;\n        title = _title;\n        story = _story;\n        bannerImg = _bannerImg;\n    }\n    \n    function contribute() external payable{\n        require(msg.value >= minContribution,\"Atleast minContribution wei required to become a contributor\");\n        if(!approvers[msg.sender]) approversCount++;\n        approvers[msg.sender] = true;\n        funding+=msg.value;\n    }\n    \n    function createRequest(string calldata description, uint value, address payable recipient) public restricted {\n        Request memory request = Request({\n            description: description,\n            value: value,\n            recipient: recipient,\n            complete: false,\n            approvalCount: 0\n        });\n        \n        requests.push(request);\n    }\n    \n    function addUpdate(string calldata image, string calldata text) external restricted\n    {\n        Update memory newUpdate = Update({\n            image: image,\n            text: text\n        });\n        \n        updates.push(newUpdate);\n    }\n    \n    function getDetails() view public returns(Details memory) { // title, story, bannerimg, funding, goal, updates\n        Details memory campDetails = Details(title, story, bannerImg, goal, funding, minContribution, address(this), manager, address(this).balance, updates);\n        \n        return campDetails;\n    }\n\n    function getUpdates() view external returns(Update[] memory) {\n        return updates;\n    }\n\n    function getRequests() view external returns(Request[] memory) {\n        return requests;\n    }\n    \n    function approveRequest(uint index) external {\n        \n        require(approvers[msg.sender], \"You dont have a voting right in this campaign, kindly contribute minimum amount be become an approver\");\n        require(!approvals[msg.sender][index], \"request already approved by you\");\n        \n        approvals[msg.sender][index] = true;\n        requests[index].approvalCount++;\n    }\n    \n    function finalizeRequest(uint index) external restricted {\n        Request storage request = requests[index]; // request is reference to requests[index]\n        require(!request.complete,\"Request already finalised\");\n        require(request.approvalCount > (approversCount/2), \"Majority didnt approved the request, cant finalise\");\n        require(request.value<=address(this).balance, \"Not enough balance to finalize request\");\n        request.recipient.transfer(request.value);\n        request.complete = true;\n    }\n    \n}\n",
  "sourcePath": "/home/shikhar/Desktop/Blockchain/initialize/contracts/Campaign.sol",
  "compiler": {
    "name": "solc",
    "version": "0.8.1+commit.df193b15.Emscripten.clang"
  },
  "schemaVersion": "3.3.4",
  "updatedAt": "2021-05-13T05:26:13.608Z",
  "devdoc": {
    "kind": "dev",
    "methods": {},
    "version": 1
  },
  "userdoc": {
    "kind": "user",
    "methods": {},
    "version": 1
  }
}